{
  "_format": "hh-sol-artifact-1",
  "contractName": "Escrow",
  "sourceName": "contracts/Escrow.sol",
  "abi": [
    {
      "anonymous": false,
      "inputs": [
        {
          "indexed": false,
          "internalType": "uint256",
          "name": "gigId",
          "type": "uint256"
        },
        {
          "indexed": false,
          "internalType": "address",
          "name": "canceledBy",
          "type": "address"
        }
      ],
      "name": "Canceled",
      "type": "event"
    },
    {
      "anonymous": false,
      "inputs": [
        {
          "indexed": false,
          "internalType": "uint256",
          "name": "gigId",
          "type": "uint256"
        },
        {
          "indexed": false,
          "internalType": "address",
          "name": "buyer",
          "type": "address"
        }
      ],
      "name": "Confirmed",
      "type": "event"
    },
    {
      "anonymous": false,
      "inputs": [
        {
          "indexed": false,
          "internalType": "uint256",
          "name": "gigId",
          "type": "uint256"
        },
        {
          "indexed": false,
          "internalType": "address",
          "name": "buyer",
          "type": "address"
        }
      ],
      "name": "Funded",
      "type": "event"
    },
    {
      "anonymous": false,
      "inputs": [
        {
          "indexed": false,
          "internalType": "uint256",
          "name": "gigId",
          "type": "uint256"
        },
        {
          "indexed": false,
          "internalType": "address",
          "name": "seller",
          "type": "address"
        },
        {
          "indexed": false,
          "internalType": "address",
          "name": "buyer",
          "type": "address"
        },
        {
          "indexed": false,
          "internalType": "uint256",
          "name": "price",
          "type": "uint256"
        }
      ],
      "name": "GigCreated",
      "type": "event"
    },
    {
      "inputs": [
        {
          "internalType": "uint256",
          "name": "_gigId",
          "type": "uint256"
        }
      ],
      "name": "cancelGig",
      "outputs": [],
      "stateMutability": "nonpayable",
      "type": "function"
    },
    {
      "inputs": [
        {
          "internalType": "uint256",
          "name": "_gigId",
          "type": "uint256"
        }
      ],
      "name": "confirmDelivery",
      "outputs": [],
      "stateMutability": "nonpayable",
      "type": "function"
    },
    {
      "inputs": [
        {
          "internalType": "address payable",
          "name": "_seller",
          "type": "address"
        },
        {
          "internalType": "uint256",
          "name": "_price",
          "type": "uint256"
        }
      ],
      "name": "createGig",
      "outputs": [],
      "stateMutability": "nonpayable",
      "type": "function"
    },
    {
      "inputs": [
        {
          "internalType": "uint256",
          "name": "_gigId",
          "type": "uint256"
        }
      ],
      "name": "fundGig",
      "outputs": [],
      "stateMutability": "payable",
      "type": "function"
    },
    {
      "inputs": [
        {
          "internalType": "uint256",
          "name": "",
          "type": "uint256"
        }
      ],
      "name": "gigs",
      "outputs": [
        {
          "internalType": "address payable",
          "name": "seller",
          "type": "address"
        },
        {
          "internalType": "address payable",
          "name": "buyer",
          "type": "address"
        },
        {
          "internalType": "uint256",
          "name": "price",
          "type": "uint256"
        },
        {
          "internalType": "enum Escrow.State",
          "name": "state",
          "type": "uint8"
        }
      ],
      "stateMutability": "view",
      "type": "function"
    },
    {
      "inputs": [],
      "name": "nextGigId",
      "outputs": [
        {
          "internalType": "uint256",
          "name": "",
          "type": "uint256"
        }
      ],
      "stateMutability": "view",
      "type": "function"
    }
  ],
  "bytecode": "0x608060405234801561001057600080fd5b5061133c806100206000396000f3fe6080604052600436106100555760003560e01c80634bca9a881461005a57806355ab6ba3146100835780635e3fbdc8146100ae5780638de8616f146100ee578063adcd2d211461010a578063fd84cb9714610133575b600080fd5b34801561006657600080fd5b50610081600480360381019061007c9190610ada565b61015c565b005b34801561008f57600080fd5b50610098610453565b6040516100a59190610b16565b60405180910390f35b3480156100ba57600080fd5b506100d560048036038101906100d09190610ada565b610459565b6040516100e59493929190610be9565b60405180910390f35b61010860048036038101906101039190610ada565b6104d6565b005b34801561011657600080fd5b50610131600480360381019061012c9190610c5a565b6106a6565b005b34801561013f57600080fd5b5061015a60048036038101906101559190610ada565b610840565b005b600080600083815260200190815260200160002090508060010160009054906101000a900473ffffffffffffffffffffffffffffffffffffffff1673ffffffffffffffffffffffffffffffffffffffff163373ffffffffffffffffffffffffffffffffffffffff16148061021f57508060000160009054906101000a900473ffffffffffffffffffffffffffffffffffffffff1673ffffffffffffffffffffffffffffffffffffffff163373ffffffffffffffffffffffffffffffffffffffff16145b61025e576040517f08c379a000000000000000000000000000000000000000000000000000000000815260040161025590610d1d565b60405180910390fd5b6002600381111561027257610271610b72565b5b8160030160009054906101000a900460ff16600381111561029657610295610b72565b5b036102d6576040517f08c379a00000000000000000000000000000000000000000000000000000000081526004016102cd90610d89565b60405180910390fd5b600160038111156102ea576102e9610b72565b5b8160030160009054906101000a900460ff16600381111561030e5761030d610b72565b5b036103e95760008160010160009054906101000a900473ffffffffffffffffffffffffffffffffffffffff1673ffffffffffffffffffffffffffffffffffffffff16826002015460405161036190610dda565b60006040518083038185875af1925050503d806000811461039e576040519150601f19603f3d011682016040523d82523d6000602084013e6103a3565b606091505b50509050806103e7576040517f08c379a00000000000000000000000000000000000000000000000000000000081526004016103de90610e3b565b60405180910390fd5b505b60038160030160006101000a81548160ff0219169083600381111561041157610410610b72565b5b02179055507fba05e869a56a216a7344a605ccad13464848815ad8bdf8d93ad788963a3cfdac8233604051610447929190610e7c565b60405180910390a15050565b60015481565b60006020528060005260406000206000915090508060000160009054906101000a900473ffffffffffffffffffffffffffffffffffffffff16908060010160009054906101000a900473ffffffffffffffffffffffffffffffffffffffff16908060020154908060030160009054906101000a900460ff16905084565b600080600083815260200190815260200160002090508060010160009054906101000a900473ffffffffffffffffffffffffffffffffffffffff1673ffffffffffffffffffffffffffffffffffffffff163373ffffffffffffffffffffffffffffffffffffffff161461057e576040517f08c379a000000000000000000000000000000000000000000000000000000000815260040161057590610f17565b60405180910390fd5b806002015434146105c4576040517f08c379a00000000000000000000000000000000000000000000000000000000081526004016105bb90610fa9565b60405180910390fd5b600060038111156105d8576105d7610b72565b5b8160030160009054906101000a900460ff1660038111156105fc576105fb610b72565b5b1461063c576040517f08c379a00000000000000000000000000000000000000000000000000000000081526004016106339061103b565b60405180910390fd5b60018160030160006101000a81548160ff0219169083600381111561066457610663610b72565b5b02179055507f4d43fc3b3939ffa6d3af7a7099a731dae887cf31e7c94a6ef374e677e9a30d25823360405161069a929190610e7c565b60405180910390a15050565b60405180608001604052808373ffffffffffffffffffffffffffffffffffffffff1681526020013373ffffffffffffffffffffffffffffffffffffffff1681526020018281526020016000600381111561070357610702610b72565b5b815250600080600154815260200190815260200160002060008201518160000160006101000a81548173ffffffffffffffffffffffffffffffffffffffff021916908373ffffffffffffffffffffffffffffffffffffffff16021790555060208201518160010160006101000a81548173ffffffffffffffffffffffffffffffffffffffff021916908373ffffffffffffffffffffffffffffffffffffffff1602179055506040820151816002015560608201518160030160006101000a81548160ff021916908360038111156107dd576107dc610b72565b5b02179055509050507f85ffcdecc1da2b88f9f96e43ae9a75320c2aebff98219555f85dcbb5f81b41dd60015483338460405161081c94939291906110ba565b60405180910390a1600160008154809291906108379061112e565b91905055505050565b600080600083815260200190815260200160002090508060010160009054906101000a900473ffffffffffffffffffffffffffffffffffffffff1673ffffffffffffffffffffffffffffffffffffffff163373ffffffffffffffffffffffffffffffffffffffff16146108e8576040517f08c379a00000000000000000000000000000000000000000000000000000000081526004016108df906111e8565b60405180910390fd5b600160038111156108fc576108fb610b72565b5b8160030160009054906101000a900460ff1660038111156109205761091f610b72565b5b14610960576040517f08c379a00000000000000000000000000000000000000000000000000000000081526004016109579061127a565b60405180910390fd5b60028160030160006101000a81548160ff0219169083600381111561098857610987610b72565b5b021790555060008160000160009054906101000a900473ffffffffffffffffffffffffffffffffffffffff1673ffffffffffffffffffffffffffffffffffffffff1682600201546040516109db90610dda565b60006040518083038185875af1925050503d8060008114610a18576040519150601f19603f3d011682016040523d82523d6000602084013e610a1d565b606091505b5050905080610a61576040517f08c379a0000000000000000000000000000000000000000000000000000000008152600401610a58906112e6565b60405180910390fd5b7f6f220d98c15dbd07fdc24781b682ea34f92411fc61b83c761dd927afbe02d3fd8333604051610a92929190610e7c565b60405180910390a1505050565b600080fd5b6000819050919050565b610ab781610aa4565b8114610ac257600080fd5b50565b600081359050610ad481610aae565b92915050565b600060208284031215610af057610aef610a9f565b5b6000610afe84828501610ac5565b91505092915050565b610b1081610aa4565b82525050565b6000602082019050610b2b6000830184610b07565b92915050565b600073ffffffffffffffffffffffffffffffffffffffff82169050919050565b6000610b5c82610b31565b9050919050565b610b6c81610b51565b82525050565b7f4e487b7100000000000000000000000000000000000000000000000000000000600052602160045260246000fd5b60048110610bb257610bb1610b72565b5b50565b6000819050610bc382610ba1565b919050565b6000610bd382610bb5565b9050919050565b610be381610bc8565b82525050565b6000608082019050610bfe6000830187610b63565b610c0b6020830186610b63565b610c186040830185610b07565b610c256060830184610bda565b95945050505050565b610c3781610b51565b8114610c4257600080fd5b50565b600081359050610c5481610c2e565b92915050565b60008060408385031215610c7157610c70610a9f565b5b6000610c7f85828601610c45565b9250506020610c9085828601610ac5565b9150509250929050565b600082825260208201905092915050565b7f4f6e6c7920746865206275796572206f722073656c6c65722063616e2063616e60008201527f63656c2e00000000000000000000000000000000000000000000000000000000602082015250565b6000610d07602483610c9a565b9150610d1282610cab565b604082019050919050565b60006020820190508181036000830152610d3681610cfa565b9050919050565b7f43616e6e6f742063616e63656c206120636f6d706c65746564206769672e0000600082015250565b6000610d73601e83610c9a565b9150610d7e82610d3d565b602082019050919050565b60006020820190508181036000830152610da281610d66565b9050919050565b600081905092915050565b50565b6000610dc4600083610da9565b9150610dcf82610db4565b600082019050919050565b6000610de582610db7565b9150819050919050565b7f4842415220726566756e6420746f206275796572206661696c65642e00000000600082015250565b6000610e25601c83610c9a565b9150610e3082610def565b602082019050919050565b60006020820190508181036000830152610e5481610e18565b9050919050565b6000610e6682610b31565b9050919050565b610e7681610e5b565b82525050565b6000604082019050610e916000830185610b07565b610e9e6020830184610e6d565b9392505050565b7f4f6e6c79207468652062757965722063616e2066756e6420746869732067696760008201527f2e00000000000000000000000000000000000000000000000000000000000000602082015250565b6000610f01602183610c9a565b9150610f0c82610ea5565b604082019050919050565b60006020820190508181036000830152610f3081610ef4565b9050919050565b7f596f75206d7573742073656e6420746865206578616374207072696365206f6660008201527f20746865206769672e0000000000000000000000000000000000000000000000602082015250565b6000610f93602983610c9a565b9150610f9e82610f37565b604082019050919050565b60006020820190508181036000830152610fc281610f86565b9050919050565b7f5468697320676967206973206e6f74206177616974696e67207061796d656e7460008201527f2e00000000000000000000000000000000000000000000000000000000000000602082015250565b6000611025602183610c9a565b915061103082610fc9565b604082019050919050565b6000602082019050818103600083015261105481611018565b9050919050565b6000819050919050565b600061108061107b61107684610b31565b61105b565b610b31565b9050919050565b600061109282611065565b9050919050565b60006110a482611087565b9050919050565b6110b481611099565b82525050565b60006080820190506110cf6000830187610b07565b6110dc60208301866110ab565b6110e96040830185610e6d565b6110f66060830184610b07565b95945050505050565b7f4e487b7100000000000000000000000000000000000000000000000000000000600052601160045260246000fd5b600061113982610aa4565b91507fffffffffffffffffffffffffffffffffffffffffffffffffffffffffffffffff820361116b5761116a6110ff565b5b600182019050919050565b7f4f6e6c79207468652062757965722063616e20636f6e6669726d2064656c697660008201527f6572792e00000000000000000000000000000000000000000000000000000000602082015250565b60006111d2602483610c9a565b91506111dd82611176565b604082019050919050565b60006020820190508181036000830152611201816111c5565b9050919050565b7f5468697320676967206973206e6f74206177616974696e672064656c6976657260008201527f7920636f6e6669726d6174696f6e2e0000000000000000000000000000000000602082015250565b6000611264602f83610c9a565b915061126f82611208565b604082019050919050565b6000602082019050818103600083015261129381611257565b9050919050565b7f48424152207472616e7366657220746f2073656c6c6572206661696c65642e00600082015250565b60006112d0601f83610c9a565b91506112db8261129a565b602082019050919050565b600060208201905081810360008301526112ff816112c3565b905091905056fea2646970667358221220273bb4233e3241436b723757df9ea2e7a647d36dd48eaa9cdc652184d18fe72d64736f6c63430008180033",
  "linkReferences": {},
  "deployedLinkReferences": {}
}