{
  "_format": "hh-sol-artifact-1",
  "contractName": "Escrow",
  "sourceName": "contracts/Escrow.sol",
  "abi": [
    {
      "inputs": [
        {
          "internalType": "address",
          "name": "_assetTokenAddress",
          "type": "address"
        }
      ],
      "stateMutability": "nonpayable",
      "type": "constructor"
    },
    {
      "anonymous": false,
      "inputs": [
        {
          "indexed": true,
          "internalType": "uint256",
          "name": "tokenId",
          "type": "uint256"
        },
        {
          "indexed": true,
          "internalType": "address",
          "name": "seller",
          "type": "address"
        },
        {
          "indexed": false,
          "internalType": "uint256",
          "name": "price",
          "type": "uint256"
        }
      ],
      "name": "AssetListed",
      "type": "event"
    },
    {
      "anonymous": false,
      "inputs": [
        {
          "indexed": true,
          "internalType": "uint256",
          "name": "tokenId",
          "type": "uint256"
        },
        {
          "indexed": true,
          "internalType": "address",
          "name": "buyer",
          "type": "address"
        }
      ],
      "name": "EscrowFunded",
      "type": "event"
    },
    {
      "anonymous": false,
      "inputs": [
        {
          "indexed": true,
          "internalType": "uint256",
          "name": "tokenId",
          "type": "uint256"
        }
      ],
      "name": "ListingCanceled",
      "type": "event"
    },
    {
      "anonymous": false,
      "inputs": [
        {
          "indexed": true,
          "internalType": "uint256",
          "name": "tokenId",
          "type": "uint256"
        },
        {
          "indexed": true,
          "internalType": "address",
          "name": "seller",
          "type": "address"
        },
        {
          "indexed": true,
          "internalType": "address",
          "name": "buyer",
          "type": "address"
        }
      ],
      "name": "SaleCompleted",
      "type": "event"
    },
    {
      "inputs": [],
      "name": "assetTokenAddress",
      "outputs": [
        {
          "internalType": "address",
          "name": "",
          "type": "address"
        }
      ],
      "stateMutability": "view",
      "type": "function"
    },
    {
      "inputs": [
        {
          "internalType": "uint256",
          "name": "tokenId",
          "type": "uint256"
        }
      ],
      "name": "cancelListing",
      "outputs": [],
      "stateMutability": "nonpayable",
      "type": "function"
    },
    {
      "inputs": [
        {
          "internalType": "uint256",
          "name": "tokenId",
          "type": "uint256"
        }
      ],
      "name": "confirmDelivery",
      "outputs": [],
      "stateMutability": "nonpayable",
      "type": "function"
    },
    {
      "inputs": [
        {
          "internalType": "uint256",
          "name": "tokenId",
          "type": "uint256"
        }
      ],
      "name": "fundEscrow",
      "outputs": [],
      "stateMutability": "payable",
      "type": "function"
    },
    {
      "inputs": [
        {
          "internalType": "uint256",
          "name": "tokenId",
          "type": "uint256"
        },
        {
          "internalType": "uint256",
          "name": "priceInTinybars",
          "type": "uint256"
        }
      ],
      "name": "listAsset",
      "outputs": [],
      "stateMutability": "nonpayable",
      "type": "function"
    },
    {
      "inputs": [
        {
          "internalType": "uint256",
          "name": "",
          "type": "uint256"
        }
      ],
      "name": "listings",
      "outputs": [
        {
          "internalType": "address",
          "name": "seller",
          "type": "address"
        },
        {
          "internalType": "address",
          "name": "buyer",
          "type": "address"
        },
        {
          "internalType": "uint256",
          "name": "price",
          "type": "uint256"
        },
        {
          "internalType": "enum Escrow.ListingState",
          "name": "state",
          "type": "uint8"
        }
      ],
      "stateMutability": "view",
      "type": "function"
    },
    {
      "inputs": [
        {
          "internalType": "uint256",
          "name": "tokenId",
          "type": "uint256"
        }
      ],
      "name": "refundBuyer",
      "outputs": [],
      "stateMutability": "nonpayable",
      "type": "function"
    }
  ],
  "bytecode": "0x60806040523480156200001157600080fd5b506040516200210f3803806200210f8339818101604052810190620000379190620000e8565b806000806101000a81548173ffffffffffffffffffffffffffffffffffffffff021916908373ffffffffffffffffffffffffffffffffffffffff160217905550506200011a565b600080fd5b600073ffffffffffffffffffffffffffffffffffffffff82169050919050565b6000620000b08262000083565b9050919050565b620000c281620000a3565b8114620000ce57600080fd5b50565b600081519050620000e281620000b7565b92915050565b6000602082840312156200010157620001006200007e565b5b60006200011184828501620000d1565b91505092915050565b611fe5806200012a6000396000f3fe6080604052600436106100705760003560e01c8063b6b972251161004e578063b6b97225146100f0578063c9c31af51461011b578063de74e57b14610137578063fd84cb971461017757610070565b8063305a67a814610075578063392927631461009e5780637bad9a3e146100c7575b600080fd5b34801561008157600080fd5b5061009c60048036038101906100979190611351565b6101a0565b005b3480156100aa57600080fd5b506100c560048036038101906100c09190611351565b610342565b005b3480156100d357600080fd5b506100ee60048036038101906100e9919061137e565b6105b9565b005b3480156100fc57600080fd5b506101056109a7565b60405161011291906113ff565b60405180910390f35b61013560048036038101906101309190611351565b6109cb565b005b34801561014357600080fd5b5061015e60048036038101906101599190611351565b610b7b565b60405161016e94939291906114a0565b60405180910390f35b34801561018357600080fd5b5061019e60048036038101906101999190611351565b610bf8565b005b60006001600083815260200190815260200160002090508060000160009054906101000a900473ffffffffffffffffffffffffffffffffffffffff1673ffffffffffffffffffffffffffffffffffffffff163373ffffffffffffffffffffffffffffffffffffffff1614610249576040517f08c379a000000000000000000000000000000000000000000000000000000000815260040161024090611568565b60405180910390fd5b6000600381111561025d5761025c611429565b5b8160030160009054906101000a900460ff16600381111561028157610280611429565b5b146102c1576040517f08c379a00000000000000000000000000000000000000000000000000000000081526004016102b8906115fa565b60405180910390fd5b60038160030160006101000a81548160ff021916908360038111156102e9576102e8611429565b5b0217905550817f5d7a33421ffa4bc07eb8929c5ace6393d3aa5ec3775e4e2f442527876b7dbe8860405160405180910390a261033e604051806060016040528060328152602001611f0060329139338461104a565b5050565b60006001600083815260200190815260200160002090508060010160009054906101000a900473ffffffffffffffffffffffffffffffffffffffff1673ffffffffffffffffffffffffffffffffffffffff163373ffffffffffffffffffffffffffffffffffffffff16146103eb576040517f08c379a00000000000000000000000000000000000000000000000000000000081526004016103e2906116b2565b60405180910390fd5b600160038111156103ff576103fe611429565b5b8160030160009054906101000a900460ff16600381111561042357610422611429565b5b14610463576040517f08c379a000000000000000000000000000000000000000000000000000000000815260040161045a9061171e565b60405180910390fd5b60038160030160006101000a81548160ff0219169083600381111561048b5761048a611429565b5b021790555060008160010160009054906101000a900473ffffffffffffffffffffffffffffffffffffffff1673ffffffffffffffffffffffffffffffffffffffff1682600201546040516104de9061176f565b60006040518083038185875af1925050503d806000811461051b576040519150601f19603f3d011682016040523d82523d6000602084013e610520565b606091505b5050905080610564576040517f08c379a000000000000000000000000000000000000000000000000000000000815260040161055b906117f6565b60405180910390fd5b827f5d7a33421ffa4bc07eb8929c5ace6393d3aa5ec3775e4e2f442527876b7dbe8860405160405180910390a26105b46040518060600160405280602a8152602001611f86602a913984336110e9565b505050565b60008060009054906101000a900473ffffffffffffffffffffffffffffffffffffffff1690503373ffffffffffffffffffffffffffffffffffffffff168173ffffffffffffffffffffffffffffffffffffffff16636352211e856040518263ffffffff1660e01b815260040161062f9190611816565b602060405180830381865afa15801561064c573d6000803e3d6000fd5b505050506040513d601f19601f82011682018060405250810190610670919061185d565b73ffffffffffffffffffffffffffffffffffffffff16146106c6576040517f08c379a00000000000000000000000000000000000000000000000000000000081526004016106bd906118fc565b60405180910390fd5b3073ffffffffffffffffffffffffffffffffffffffff168173ffffffffffffffffffffffffffffffffffffffff1663081812fc856040518263ffffffff1660e01b81526004016107169190611816565b602060405180830381865afa158015610733573d6000803e3d6000fd5b505050506040513d601f19601f82011682018060405250810190610757919061185d565b73ffffffffffffffffffffffffffffffffffffffff16146107ad576040517f08c379a00000000000000000000000000000000000000000000000000000000081526004016107a49061198e565b60405180910390fd5b600082116107f0576040517f08c379a00000000000000000000000000000000000000000000000000000000081526004016107e790611a20565b60405180910390fd5b60405180608001604052803373ffffffffffffffffffffffffffffffffffffffff168152602001600073ffffffffffffffffffffffffffffffffffffffff1681526020018381526020016000600381111561084e5761084d611429565b5b8152506001600085815260200190815260200160002060008201518160000160006101000a81548173ffffffffffffffffffffffffffffffffffffffff021916908373ffffffffffffffffffffffffffffffffffffffff16021790555060208201518160010160006101000a81548173ffffffffffffffffffffffffffffffffffffffff021916908373ffffffffffffffffffffffffffffffffffffffff1602179055506040820151816002015560608201518160030160006101000a81548160ff0219169083600381111561092757610926611429565b5b02179055509050503373ffffffffffffffffffffffffffffffffffffffff16837f476606c547e15093eee9f27111d27bfb5d4a751983dec28c9100eb7bb39b8db1846040516109769190611816565b60405180910390a36109a2604051806060016040528060308152602001611f3260309139338585611188565b505050565b60008054906101000a900473ffffffffffffffffffffffffffffffffffffffff1681565b6000600160008381526020019081526020016000209050600060038111156109f6576109f5611429565b5b8160030160009054906101000a900460ff166003811115610a1a57610a19611429565b5b14610a5a576040517f08c379a0000000000000000000000000000000000000000000000000000000008152600401610a5190611ab2565b60405180910390fd5b80600201543414610aa0576040517f08c379a0000000000000000000000000000000000000000000000000000000008152600401610a9790611b44565b60405180910390fd5b338160010160006101000a81548173ffffffffffffffffffffffffffffffffffffffff021916908373ffffffffffffffffffffffffffffffffffffffff16021790555060018160030160006101000a81548160ff02191690836003811115610b0b57610b0a611429565b5b02179055503373ffffffffffffffffffffffffffffffffffffffff16827ff31aa8c1b282e288eee75b61fa1ca7fba12a48dfa18132fc448588738aa0e65760405160405180910390a3610b776040518060600160405280602e8152602001611ed2602e9139338461104a565b5050565b60016020528060005260406000206000915090508060000160009054906101000a900473ffffffffffffffffffffffffffffffffffffffff16908060010160009054906101000a900473ffffffffffffffffffffffffffffffffffffffff16908060020154908060030160009054906101000a900460ff16905084565b600060016000838152602001908152602001600020905060008060009054906101000a900473ffffffffffffffffffffffffffffffffffffffff1690508160010160009054906101000a900473ffffffffffffffffffffffffffffffffffffffff1673ffffffffffffffffffffffffffffffffffffffff163373ffffffffffffffffffffffffffffffffffffffff1614610cc7576040517f08c379a0000000000000000000000000000000000000000000000000000000008152600401610cbe90611bd6565b60405180910390fd5b60016003811115610cdb57610cda611429565b5b8260030160009054906101000a900460ff166003811115610cff57610cfe611429565b5b14610d3f576040517f08c379a0000000000000000000000000000000000000000000000000000000008152600401610d3690611c42565b60405180910390fd5b60028260030160006101000a81548160ff02191690836003811115610d6757610d66611429565b5b021790555060008260000160009054906101000a900473ffffffffffffffffffffffffffffffffffffffff1673ffffffffffffffffffffffffffffffffffffffff168360020154604051610dba9061176f565b60006040518083038185875af1925050503d8060008114610df7576040519150601f19603f3d011682016040523d82523d6000602084013e610dfc565b606091505b5050905080610e40576040517f08c379a0000000000000000000000000000000000000000000000000000000008152600401610e3790611cd4565b60405180910390fd5b610ea36040518060400160405280601681526020017f484241522073656e7420746f2073656c6c6572202573000000000000000000008152508460000160009054906101000a900473ffffffffffffffffffffffffffffffffffffffff1661122a565b8173ffffffffffffffffffffffffffffffffffffffff166342842e0e8460000160009054906101000a900473ffffffffffffffffffffffffffffffffffffffff168560010160009054906101000a900473ffffffffffffffffffffffffffffffffffffffff16876040518463ffffffff1660e01b8152600401610f2893929190611cf4565b600060405180830381600087803b158015610f4257600080fd5b505af1158015610f56573d6000803e3d6000fd5b50505050610fa1604051806060016040528060248152602001611f6260249139858560010160009054906101000a900473ffffffffffffffffffffffffffffffffffffffff166110e9565b8260010160009054906101000a900473ffffffffffffffffffffffffffffffffffffffff1673ffffffffffffffffffffffffffffffffffffffff168360000160009054906101000a900473ffffffffffffffffffffffffffffffffffffffff1673ffffffffffffffffffffffffffffffffffffffff16857fdb87be53c711a1eb193f5fffddcfd85425990853a8423fa2bfd4a8620c218ed460405160405180910390a450505050565b6110e483838360405160240161106293929190611daa565b6040516020818303038152906040527f0d26b925000000000000000000000000000000000000000000000000000000007bffffffffffffffffffffffffffffffffffffffffffffffffffffffff19166020820180517bffffffffffffffffffffffffffffffffffffffffffffffffffffffff83818316178352505050506112c6565b505050565b61118383838360405160240161110193929190611de8565b6040516020818303038152906040527f1c7ec448000000000000000000000000000000000000000000000000000000007bffffffffffffffffffffffffffffffffffffffffffffffffffffffff19166020820180517bffffffffffffffffffffffffffffffffffffffffffffffffffffffff83818316178352505050506112c6565b505050565b611224848484846040516024016111a29493929190611e26565b6040516020818303038152906040527ff8f51b1e000000000000000000000000000000000000000000000000000000007bffffffffffffffffffffffffffffffffffffffffffffffffffffffff19166020820180517bffffffffffffffffffffffffffffffffffffffffffffffffffffffff83818316178352505050506112c6565b50505050565b6112c28282604051602401611240929190611e72565b6040516020818303038152906040527f319af333000000000000000000000000000000000000000000000000000000007bffffffffffffffffffffffffffffffffffffffffffffffffffffffff19166020820180517bffffffffffffffffffffffffffffffffffffffffffffffffffffffff83818316178352505050506112c6565b5050565b6112dd816112d56112e0611301565b63ffffffff16565b50565b60006a636f6e736f6c652e6c6f679050600080835160208501845afa505050565b61130c819050919050565b611314611ea2565b565b600080fd5b6000819050919050565b61132e8161131b565b811461133957600080fd5b50565b60008135905061134b81611325565b92915050565b60006020828403121561136757611366611316565b5b60006113758482850161133c565b91505092915050565b6000806040838503121561139557611394611316565b5b60006113a38582860161133c565b92505060206113b48582860161133c565b9150509250929050565b600073ffffffffffffffffffffffffffffffffffffffff82169050919050565b60006113e9826113be565b9050919050565b6113f9816113de565b82525050565b600060208201905061141460008301846113f0565b92915050565b6114238161131b565b82525050565b7f4e487b7100000000000000000000000000000000000000000000000000000000600052602160045260246000fd5b6004811061146957611468611429565b5b50565b600081905061147a82611458565b919050565b600061148a8261146c565b9050919050565b61149a8161147f565b82525050565b60006080820190506114b560008301876113f0565b6114c260208301866113f0565b6114cf604083018561141a565b6114dc6060830184611491565b95945050505050565b600082825260208201905092915050565b7f457363726f773a204f6e6c79207468652073656c6c65722063616e2063616e6360008201527f656c2061206c697374696e672e00000000000000000000000000000000000000602082015250565b6000611552602d836114e5565b915061155d826114f6565b604082019050919050565b6000602082019050818103600083015261158181611545565b9050919050565b7f457363726f773a204c697374696e67206973206e6f7420696e20612063616e6360008201527f656c61626c652073746174652e00000000000000000000000000000000000000602082015250565b60006115e4602d836114e5565b91506115ef82611588565b604082019050919050565b60006020820190508181036000830152611613816115d7565b9050919050565b7f457363726f773a204f6e6c79207468652062757965722063616e20726571756560008201527f7374206120726566756e6420756e64657220737065636966696320636f6e646960208201527f74696f6e732e0000000000000000000000000000000000000000000000000000604082015250565b600061169c6046836114e5565b91506116a78261161a565b606082019050919050565b600060208201905081810360008301526116cb8161168f565b9050919050565b7f457363726f773a204173736574206973206e6f742066756e6465642e00000000600082015250565b6000611708601c836114e5565b9150611713826116d2565b602082019050919050565b60006020820190508181036000830152611737816116fb565b9050919050565b600081905092915050565b50565b600061175960008361173e565b915061176482611749565b600082019050919050565b600061177a8261174c565b9150819050919050565b7f457363726f773a204661696c656420746f20726566756e64204842415220746f60008201527f2062757965722e00000000000000000000000000000000000000000000000000602082015250565b60006117e06027836114e5565b91506117eb82611784565b604082019050919050565b6000602082019050818103600083015261180f816117d3565b9050919050565b600060208201905061182b600083018461141a565b92915050565b61183a816113de565b811461184557600080fd5b50565b60008151905061185781611831565b92915050565b60006020828403121561187357611872611316565b5b600061188184828501611848565b91505092915050565b7f457363726f773a204f6e6c7920746865206f776e65722063616e206c6973742060008201527f7468652061737365742e00000000000000000000000000000000000000000000602082015250565b60006118e6602a836114e5565b91506118f18261188a565b604082019050919050565b60006020820190508181036000830152611915816118d9565b9050919050565b7f457363726f773a20436f6e7472616374206d75737420626520617070726f766560008201527f6420746f207472616e73666572207468652061737365742e0000000000000000602082015250565b60006119786038836114e5565b91506119838261191c565b604082019050919050565b600060208201905081810360008301526119a78161196b565b9050919050565b7f457363726f773a205072696365206d757374206265206772656174657220746860008201527f616e207a65726f2e000000000000000000000000000000000000000000000000602082015250565b6000611a0a6028836114e5565b9150611a15826119ae565b604082019050919050565b60006020820190508181036000830152611a39816119fd565b9050919050565b7f457363726f773a204173736574206973206e6f74206c697374656420666f722060008201527f73616c652e000000000000000000000000000000000000000000000000000000602082015250565b6000611a9c6025836114e5565b9150611aa782611a40565b604082019050919050565b60006020820190508181036000830152611acb81611a8f565b9050919050565b7f457363726f773a20496e636f7272656374207061796d656e7420616d6f756e7460008201527f2e00000000000000000000000000000000000000000000000000000000000000602082015250565b6000611b2e6021836114e5565b9150611b3982611ad2565b604082019050919050565b60006020820190508181036000830152611b5d81611b21565b9050919050565b7f457363726f773a204f6e6c79207468652062757965722063616e20636f6e666960008201527f726d2064656c69766572792e0000000000000000000000000000000000000000602082015250565b6000611bc0602c836114e5565b9150611bcb82611b64565b604082019050919050565b60006020820190508181036000830152611bef81611bb3565b9050919050565b7f457363726f773a20457363726f77206973206e6f742066756e6465642e000000600082015250565b6000611c2c601d836114e5565b9150611c3782611bf6565b602082019050919050565b60006020820190508181036000830152611c5b81611c1f565b9050919050565b7f457363726f773a204661696c656420746f2073656e64204842415220746f207360008201527f656c6c65722e0000000000000000000000000000000000000000000000000000602082015250565b6000611cbe6026836114e5565b9150611cc982611c62565b604082019050919050565b60006020820190508181036000830152611ced81611cb1565b9050919050565b6000606082019050611d0960008301866113f0565b611d1660208301856113f0565b611d23604083018461141a565b949350505050565b600081519050919050565b60005b83811015611d54578082015181840152602081019050611d39565b60008484015250505050565b6000601f19601f8301169050919050565b6000611d7c82611d2b565b611d8681856114e5565b9350611d96818560208601611d36565b611d9f81611d60565b840191505092915050565b60006060820190508181036000830152611dc48186611d71565b9050611dd360208301856113f0565b611de0604083018461141a565b949350505050565b60006060820190508181036000830152611e028186611d71565b9050611e11602083018561141a565b611e1e60408301846113f0565b949350505050565b60006080820190508181036000830152611e408187611d71565b9050611e4f60208301866113f0565b611e5c604083018561141a565b611e69606083018461141a565b95945050505050565b60006040820190508181036000830152611e8c8185611d71565b9050611e9b60208301846113f0565b9392505050565b7f4e487b7100000000000000000000000000000000000000000000000000000000600052605160045260246000fdfe4275796572202573206861732066756e6465642074686520657363726f7720666f7220546f6b656e20494420257353656c6c6572202573206861732063616e63656c656420746865206c697374696e6720666f7220546f6b656e20494420257353656c6c657220257320686173206c697374656420546f6b656e20494420257320666f722025732074696e79626172734173736574204e4654202573207472616e7366657272656420746f20627579657220257346756e647320666f7220546f6b656e20494420257320726566756e64656420746f206275796572202573a2646970667358221220487e16740916ad0344ece516355a8ae1f3c5b5c55a3249192fa588485af089b064736f6c63430008180033",
  "linkReferences": {},
  "deployedLinkReferences": {}
}