{
  "_format": "hh-sol-artifact-1",
  "contractName": "Escrow",
  "sourceName": "contracts/Escrow.sol",
  "abi": [
    {
      "anonymous": false,
      "inputs": [
        {
          "indexed": true,
          "internalType": "address",
          "name": "tokenAddress",
          "type": "address"
        },
        {
          "indexed": true,
          "internalType": "uint64",
          "name": "serialNumber",
          "type": "uint64"
        },
        {
          "indexed": true,
          "internalType": "address",
          "name": "seller",
          "type": "address"
        },
        {
          "indexed": false,
          "internalType": "uint256",
          "name": "price",
          "type": "uint256"
        }
      ],
      "name": "AssetListed",
      "type": "event"
    },
    {
      "anonymous": false,
      "inputs": [
        {
          "indexed": true,
          "internalType": "address",
          "name": "tokenAddress",
          "type": "address"
        },
        {
          "indexed": true,
          "internalType": "uint64",
          "name": "serialNumber",
          "type": "uint64"
        },
        {
          "indexed": true,
          "internalType": "address",
          "name": "buyer",
          "type": "address"
        }
      ],
      "name": "EscrowFunded",
      "type": "event"
    },
    {
      "anonymous": false,
      "inputs": [
        {
          "indexed": true,
          "internalType": "address",
          "name": "tokenAddress",
          "type": "address"
        },
        {
          "indexed": true,
          "internalType": "uint64",
          "name": "serialNumber",
          "type": "uint64"
        }
      ],
      "name": "ListingCanceled",
      "type": "event"
    },
    {
      "anonymous": false,
      "inputs": [
        {
          "indexed": true,
          "internalType": "address",
          "name": "tokenAddress",
          "type": "address"
        },
        {
          "indexed": true,
          "internalType": "uint64",
          "name": "serialNumber",
          "type": "uint64"
        },
        {
          "indexed": false,
          "internalType": "address",
          "name": "seller",
          "type": "address"
        },
        {
          "indexed": false,
          "internalType": "address",
          "name": "buyer",
          "type": "address"
        }
      ],
      "name": "SaleCompleted",
      "type": "event"
    },
    {
      "inputs": [
        {
          "internalType": "address",
          "name": "tokenAddress",
          "type": "address"
        },
        {
          "internalType": "uint64",
          "name": "serialNumber",
          "type": "uint64"
        }
      ],
      "name": "cancelListing",
      "outputs": [],
      "stateMutability": "nonpayable",
      "type": "function"
    },
    {
      "inputs": [
        {
          "internalType": "address",
          "name": "tokenAddress",
          "type": "address"
        },
        {
          "internalType": "uint64",
          "name": "serialNumber",
          "type": "uint64"
        }
      ],
      "name": "confirmDelivery",
      "outputs": [],
      "stateMutability": "nonpayable",
      "type": "function"
    },
    {
      "inputs": [
        {
          "internalType": "address",
          "name": "tokenAddress",
          "type": "address"
        },
        {
          "internalType": "uint64",
          "name": "serialNumber",
          "type": "uint64"
        }
      ],
      "name": "fundEscrow",
      "outputs": [],
      "stateMutability": "payable",
      "type": "function"
    },
    {
      "inputs": [
        {
          "internalType": "address",
          "name": "tokenAddress",
          "type": "address"
        },
        {
          "internalType": "uint64",
          "name": "serialNumber",
          "type": "uint64"
        },
        {
          "internalType": "uint256",
          "name": "priceInTinybars",
          "type": "uint256"
        }
      ],
      "name": "listAsset",
      "outputs": [],
      "stateMutability": "nonpayable",
      "type": "function"
    },
    {
      "inputs": [
        {
          "internalType": "address",
          "name": "",
          "type": "address"
        },
        {
          "internalType": "uint64",
          "name": "",
          "type": "uint64"
        }
      ],
      "name": "listings",
      "outputs": [
        {
          "internalType": "address",
          "name": "seller",
          "type": "address"
        },
        {
          "internalType": "address",
          "name": "buyer",
          "type": "address"
        },
        {
          "internalType": "uint256",
          "name": "price",
          "type": "uint256"
        },
        {
          "internalType": "enum Escrow.ListingState",
          "name": "state",
          "type": "uint8"
        }
      ],
      "stateMutability": "view",
      "type": "function"
    },
    {
      "inputs": [
        {
          "internalType": "address",
          "name": "tokenAddress",
          "type": "address"
        },
        {
          "internalType": "uint64",
          "name": "serialNumber",
          "type": "uint64"
        }
      ],
      "name": "refundBuyer",
      "outputs": [],
      "stateMutability": "nonpayable",
      "type": "function"
    }
  ],
  "bytecode": "0x608060405234801561001057600080fd5b50611caf806100206000396000f3fe6080604052600436106100555760003560e01c80630b8fcccf1461005a5780633641c31b146100835780635c869f47146100ac5780635dd0f902146100c8578063648c0369146101085780639ad161a614610131575b600080fd5b34801561006657600080fd5b50610081600480360381019061007c91906111e6565b61015a565b005b34801561008f57600080fd5b506100aa60048036038101906100a591906111e6565b6105b6565b005b6100c660048036038101906100c191906111e6565b61089d565b005b3480156100d457600080fd5b506100ef60048036038101906100ea91906111e6565b610ae8565b6040516100ff94939291906112c5565b60405180910390f35b34801561011457600080fd5b5061012f600480360381019061012a91906111e6565b610b72565b005b34801561013d57600080fd5b5061015860048036038101906101539190611336565b610da1565b005b60008060008473ffffffffffffffffffffffffffffffffffffffff1673ffffffffffffffffffffffffffffffffffffffff16815260200190815260200160002060008367ffffffffffffffff1667ffffffffffffffff16815260200190815260200160002090508060010160009054906101000a900473ffffffffffffffffffffffffffffffffffffffff1673ffffffffffffffffffffffffffffffffffffffff163373ffffffffffffffffffffffffffffffffffffffff1614610253576040517f08c379a000000000000000000000000000000000000000000000000000000000815260040161024a9061140c565b60405180910390fd5b600160038111156102675761026661124e565b5b8160030160009054906101000a900460ff16600381111561028b5761028a61124e565b5b146102cb576040517f08c379a00000000000000000000000000000000000000000000000000000000081526004016102c290611478565b60405180910390fd5b60028160030160006101000a81548160ff021916908360038111156102f3576102f261124e565b5b021790555060006103078260020154611026565b905060008260000160009054906101000a900473ffffffffffffffffffffffffffffffffffffffff1673ffffffffffffffffffffffffffffffffffffffff1682604051610353906114c9565b60006040518083038185875af1925050503d8060008114610390576040519150601f19603f3d011682016040523d82523d6000602084013e610395565b606091505b50509050806103d9576040517f08c379a00000000000000000000000000000000000000000000000000000000081526004016103d090611550565b60405180910390fd5b6104176040518060400160405280601481526020017f484241522073656e7420746f2073656c6c65722e000000000000000000000000815250611040565b8473ffffffffffffffffffffffffffffffffffffffff166323b872dd8460000160009054906101000a900473ffffffffffffffffffffffffffffffffffffffff168560010160009054906101000a900473ffffffffffffffffffffffffffffffffffffffff16876040518463ffffffff1660e01b815260040161049c939291906115ab565b600060405180830381600087803b1580156104b657600080fd5b505af11580156104ca573d6000803e3d6000fd5b5050505061050c6040518060400160405280601f81526020017f4173736574204e4654207472616e7366657272656420746f2062757965722e00815250611040565b8367ffffffffffffffff168573ffffffffffffffffffffffffffffffffffffffff167f01dfea4b4f661eb6b26c5db82b13a8bd3f8fbdc6b4fab884b7e59b5b61dc0fca8560000160009054906101000a900473ffffffffffffffffffffffffffffffffffffffff168660010160009054906101000a900473ffffffffffffffffffffffffffffffffffffffff166040516105a79291906115e2565b60405180910390a35050505050565b60008060008473ffffffffffffffffffffffffffffffffffffffff1673ffffffffffffffffffffffffffffffffffffffff16815260200190815260200160002060008367ffffffffffffffff1667ffffffffffffffff16815260200190815260200160002090508060010160009054906101000a900473ffffffffffffffffffffffffffffffffffffffff1673ffffffffffffffffffffffffffffffffffffffff163373ffffffffffffffffffffffffffffffffffffffff16146106af576040517f08c379a00000000000000000000000000000000000000000000000000000000081526004016106a6906116a3565b60405180910390fd5b600160038111156106c3576106c261124e565b5b8160030160009054906101000a900460ff1660038111156106e7576106e661124e565b5b14610727576040517f08c379a000000000000000000000000000000000000000000000000000000000815260040161071e9061170f565b60405180910390fd5b60038160030160006101000a81548160ff0219169083600381111561074f5761074e61124e565b5b021790555060008160010160009054906101000a900473ffffffffffffffffffffffffffffffffffffffff1673ffffffffffffffffffffffffffffffffffffffff1682600201546040516107a2906114c9565b60006040518083038185875af1925050503d80600081146107df576040519150601f19603f3d011682016040523d82523d6000602084013e6107e4565b606091505b5050905080610828576040517f08c379a000000000000000000000000000000000000000000000000000000000815260040161081f906117a1565b60405180910390fd5b8267ffffffffffffffff168473ffffffffffffffffffffffffffffffffffffffff167f703cbc0b1618fb502cf71d7e600c0016cf0c6d5bfc74902a8b25ff1365bd0c7660405160405180910390a3610897604051806060016040528060228152602001611c5860229139611040565b50505050565b60008060008473ffffffffffffffffffffffffffffffffffffffff1673ffffffffffffffffffffffffffffffffffffffff16815260200190815260200160002060008367ffffffffffffffff1667ffffffffffffffff1681526020019081526020016000209050600060038111156109185761091761124e565b5b8160030160009054906101000a900460ff16600381111561093c5761093b61124e565b5b1461097c576040517f08c379a000000000000000000000000000000000000000000000000000000000815260040161097390611833565b60405180910390fd5b6000610987346110d9565b9050816002015481146109cf576040517f08c379a00000000000000000000000000000000000000000000000000000000081526004016109c6906118c5565b60405180910390fd5b338260010160006101000a81548173ffffffffffffffffffffffffffffffffffffffff021916908373ffffffffffffffffffffffffffffffffffffffff16021790555060018260030160006101000a81548160ff02191690836003811115610a3a57610a3961124e565b5b02179055503373ffffffffffffffffffffffffffffffffffffffff168367ffffffffffffffff168573ffffffffffffffffffffffffffffffffffffffff167fdc912a698fc99863e4ce69384e64819e46cb636a9b2b25656365a3ebe6bb1c1d60405160405180910390a4610ae26040518060400160405280601c81526020017f4275796572206861732066756e6465642074686520657363726f772e00000000815250611040565b50505050565b6000602052816000526040600020602052806000526040600020600091509150508060000160009054906101000a900473ffffffffffffffffffffffffffffffffffffffff16908060010160009054906101000a900473ffffffffffffffffffffffffffffffffffffffff16908060020154908060030160009054906101000a900460ff16905084565b60008060008473ffffffffffffffffffffffffffffffffffffffff1673ffffffffffffffffffffffffffffffffffffffff16815260200190815260200160002060008367ffffffffffffffff1667ffffffffffffffff16815260200190815260200160002090508060000160009054906101000a900473ffffffffffffffffffffffffffffffffffffffff1673ffffffffffffffffffffffffffffffffffffffff163373ffffffffffffffffffffffffffffffffffffffff1614610c6b576040517f08c379a0000000000000000000000000000000000000000000000000000000008152600401610c6290611957565b60405180910390fd5b60006003811115610c7f57610c7e61124e565b5b8160030160009054906101000a900460ff166003811115610ca357610ca261124e565b5b14610ce3576040517f08c379a0000000000000000000000000000000000000000000000000000000008152600401610cda906119e9565b60405180910390fd5b60038160030160006101000a81548160ff02191690836003811115610d0b57610d0a61124e565b5b02179055508167ffffffffffffffff168373ffffffffffffffffffffffffffffffffffffffff167f703cbc0b1618fb502cf71d7e600c0016cf0c6d5bfc74902a8b25ff1365bd0c7660405160405180910390a3610d9c6040518060400160405280602081526020017f53656c6c6572206861732063616e63656c656420746865206c697374696e672e815250611040565b505050565b60008111610de4576040517f08c379a0000000000000000000000000000000000000000000000000000000008152600401610ddb90611a7b565b60405180910390fd5b60405180608001604052803373ffffffffffffffffffffffffffffffffffffffff168152602001600073ffffffffffffffffffffffffffffffffffffffff16815260200182815260200160006003811115610e4257610e4161124e565b5b8152506000808573ffffffffffffffffffffffffffffffffffffffff1673ffffffffffffffffffffffffffffffffffffffff16815260200190815260200160002060008467ffffffffffffffff1667ffffffffffffffff16815260200190815260200160002060008201518160000160006101000a81548173ffffffffffffffffffffffffffffffffffffffff021916908373ffffffffffffffffffffffffffffffffffffffff16021790555060208201518160010160006101000a81548173ffffffffffffffffffffffffffffffffffffffff021916908373ffffffffffffffffffffffffffffffffffffffff1602179055506040820151816002015560608201518160030160006101000a81548160ff02191690836003811115610f6b57610f6a61124e565b5b02179055509050503373ffffffffffffffffffffffffffffffffffffffff168267ffffffffffffffff168473ffffffffffffffffffffffffffffffffffffffff167f9ed3fa15b374d7c8a53902398480cb99e87ca6ac1604c7c4ecba035e62ddf8cc84604051610fdb9190611a9b565b60405180910390a46110216040518060400160405280601a81526020017f53656c6c657220686173206c6973746564206120746f6b656e2e000000000000815250611040565b505050565b60006402540be400826110399190611ae5565b9050919050565b6110d6816040516024016110549190611ba6565b6040516020818303038152906040527f41304fac000000000000000000000000000000000000000000000000000000007bffffffffffffffffffffffffffffffffffffffffffffffffffffffff19166020820180517bffffffffffffffffffffffffffffffffffffffffffffffffffffffff83818316178352505050506110f3565b50565b60006402540be400826110ec9190611bf7565b9050919050565b61110a8161110261110d61112e565b63ffffffff16565b50565b60006a636f6e736f6c652e6c6f679050600080835160208501845afa505050565b611139819050919050565b611141611c28565b565b600080fd5b600073ffffffffffffffffffffffffffffffffffffffff82169050919050565b600061117382611148565b9050919050565b61118381611168565b811461118e57600080fd5b50565b6000813590506111a08161117a565b92915050565b600067ffffffffffffffff82169050919050565b6111c3816111a6565b81146111ce57600080fd5b50565b6000813590506111e0816111ba565b92915050565b600080604083850312156111fd576111fc611143565b5b600061120b85828601611191565b925050602061121c858286016111d1565b9150509250929050565b61122f81611168565b82525050565b6000819050919050565b61124881611235565b82525050565b7f4e487b7100000000000000000000000000000000000000000000000000000000600052602160045260246000fd5b6004811061128e5761128d61124e565b5b50565b600081905061129f8261127d565b919050565b60006112af82611291565b9050919050565b6112bf816112a4565b82525050565b60006080820190506112da6000830187611226565b6112e76020830186611226565b6112f4604083018561123f565b61130160608301846112b6565b95945050505050565b61131381611235565b811461131e57600080fd5b50565b6000813590506113308161130a565b92915050565b60008060006060848603121561134f5761134e611143565b5b600061135d86828701611191565b935050602061136e868287016111d1565b925050604061137f86828701611321565b9150509250925092565b600082825260208201905092915050565b7f457363726f773a204f6e6c79207468652062757965722063616e20636f6e666960008201527f726d2064656c69766572792e0000000000000000000000000000000000000000602082015250565b60006113f6602c83611389565b91506114018261139a565b604082019050919050565b60006020820190508181036000830152611425816113e9565b9050919050565b7f457363726f773a20457363726f77206973206e6f742066756e6465642e000000600082015250565b6000611462601d83611389565b915061146d8261142c565b602082019050919050565b6000602082019050818103600083015261149181611455565b9050919050565b600081905092915050565b50565b60006114b3600083611498565b91506114be826114a3565b600082019050919050565b60006114d4826114a6565b9150819050919050565b7f457363726f773a204661696c656420746f2073656e64204842415220746f207360008201527f656c6c65722e0000000000000000000000000000000000000000000000000000602082015250565b600061153a602683611389565b9150611545826114de565b604082019050919050565b600060208201905081810360008301526115698161152d565b9050919050565b6000819050919050565b600061159561159061158b846111a6565b611570565b611235565b9050919050565b6115a58161157a565b82525050565b60006060820190506115c06000830186611226565b6115cd6020830185611226565b6115da604083018461159c565b949350505050565b60006040820190506115f76000830185611226565b6116046020830184611226565b9392505050565b7f457363726f773a204f6e6c79207468652062757965722063616e20726571756560008201527f7374206120726566756e6420756e64657220737065636966696320636f6e646960208201527f74696f6e732e0000000000000000000000000000000000000000000000000000604082015250565b600061168d604683611389565b91506116988261160b565b606082019050919050565b600060208201905081810360008301526116bc81611680565b9050919050565b7f457363726f773a204173736574206973206e6f742066756e6465642e00000000600082015250565b60006116f9601c83611389565b9150611704826116c3565b602082019050919050565b60006020820190508181036000830152611728816116ec565b9050919050565b7f457363726f773a204661696c656420746f20726566756e64204842415220746f60008201527f2062757965722e00000000000000000000000000000000000000000000000000602082015250565b600061178b602783611389565b91506117968261172f565b604082019050919050565b600060208201905081810360008301526117ba8161177e565b9050919050565b7f457363726f773a204173736574206973206e6f74206c697374656420666f722060008201527f73616c652e000000000000000000000000000000000000000000000000000000602082015250565b600061181d602583611389565b9150611828826117c1565b604082019050919050565b6000602082019050818103600083015261184c81611810565b9050919050565b7f457363726f773a20496e636f7272656374207061796d656e7420616d6f756e7460008201527f2e00000000000000000000000000000000000000000000000000000000000000602082015250565b60006118af602183611389565b91506118ba82611853565b604082019050919050565b600060208201905081810360008301526118de816118a2565b9050919050565b7f457363726f773a204f6e6c79207468652073656c6c65722063616e2063616e6360008201527f656c2061206c697374696e672e00000000000000000000000000000000000000602082015250565b6000611941602d83611389565b915061194c826118e5565b604082019050919050565b6000602082019050818103600083015261197081611934565b9050919050565b7f457363726f773a204c697374696e67206973206e6f7420696e20612063616e6360008201527f656c61626c652073746174652e00000000000000000000000000000000000000602082015250565b60006119d3602d83611389565b91506119de82611977565b604082019050919050565b60006020820190508181036000830152611a02816119c6565b9050919050565b7f457363726f773a205072696365206d757374206265206772656174657220746860008201527f616e207a65726f2e000000000000000000000000000000000000000000000000602082015250565b6000611a65602883611389565b9150611a7082611a09565b604082019050919050565b60006020820190508181036000830152611a9481611a58565b9050919050565b6000602082019050611ab0600083018461123f565b92915050565b7f4e487b7100000000000000000000000000000000000000000000000000000000600052601160045260246000fd5b6000611af082611235565b9150611afb83611235565b9250828202611b0981611235565b91508282048414831517611b2057611b1f611ab6565b5b5092915050565b600081519050919050565b60005b83811015611b50578082015181840152602081019050611b35565b60008484015250505050565b6000601f19601f8301169050919050565b6000611b7882611b27565b611b828185611389565b9350611b92818560208601611b32565b611b9b81611b5c565b840191505092915050565b60006020820190508181036000830152611bc08184611b6d565b905092915050565b7f4e487b7100000000000000000000000000000000000000000000000000000000600052601260045260246000fd5b6000611c0282611235565b9150611c0d83611235565b925082611c1d57611c1c611bc8565b5b828204905092915050565b7f4e487b7100000000000000000000000000000000000000000000000000000000600052605160045260246000fdfe46756e647320666f7220546f6b656e20726566756e64656420746f2062757965722ea26469706673582212205076403a4d676b6dc1386e0ef96a05c76cb0a0e81fc0eacc1f97c27973fa8c6764736f6c63430008180033",
  "linkReferences": {},
  "deployedLinkReferences": {}
}