{
  "_format": "hh-sol-artifact-1",
  "contractName": "AssetToken",
  "sourceName": "contracts/AssetToken.sol",
  "abi": [
    {
      "inputs": [],
      "stateMutability": "nonpayable",
      "type": "constructor"
    },
    {
      "inputs": [
        {
          "internalType": "address",
          "name": "sender",
          "type": "address"
        },
        {
          "internalType": "uint256",
          "name": "tokenId",
          "type": "uint256"
        },
        {
          "internalType": "address",
          "name": "owner",
          "type": "address"
        }
      ],
      "name": "ERC721IncorrectOwner",
      "type": "error"
    },
    {
      "inputs": [
        {
          "internalType": "address",
          "name": "operator",
          "type": "address"
        },
        {
          "internalType": "uint256",
          "name": "tokenId",
          "type": "uint256"
        }
      ],
      "name": "ERC721InsufficientApproval",
      "type": "error"
    },
    {
      "inputs": [
        {
          "internalType": "address",
          "name": "approver",
          "type": "address"
        }
      ],
      "name": "ERC721InvalidApprover",
      "type": "error"
    },
    {
      "inputs": [
        {
          "internalType": "address",
          "name": "operator",
          "type": "address"
        }
      ],
      "name": "ERC721InvalidOperator",
      "type": "error"
    },
    {
      "inputs": [
        {
          "internalType": "address",
          "name": "owner",
          "type": "address"
        }
      ],
      "name": "ERC721InvalidOwner",
      "type": "error"
    },
    {
      "inputs": [
        {
          "internalType": "address",
          "name": "receiver",
          "type": "address"
        }
      ],
      "name": "ERC721InvalidReceiver",
      "type": "error"
    },
    {
      "inputs": [
        {
          "internalType": "address",
          "name": "sender",
          "type": "address"
        }
      ],
      "name": "ERC721InvalidSender",
      "type": "error"
    },
    {
      "inputs": [
        {
          "internalType": "uint256",
          "name": "tokenId",
          "type": "uint256"
        }
      ],
      "name": "ERC721NonexistentToken",
      "type": "error"
    },
    {
      "inputs": [
        {
          "internalType": "address",
          "name": "owner",
          "type": "address"
        }
      ],
      "name": "OwnableInvalidOwner",
      "type": "error"
    },
    {
      "inputs": [
        {
          "internalType": "address",
          "name": "account",
          "type": "address"
        }
      ],
      "name": "OwnableUnauthorizedAccount",
      "type": "error"
    },
    {
      "anonymous": false,
      "inputs": [
        {
          "indexed": true,
          "internalType": "address",
          "name": "owner",
          "type": "address"
        },
        {
          "indexed": true,
          "internalType": "address",
          "name": "approved",
          "type": "address"
        },
        {
          "indexed": true,
          "internalType": "uint256",
          "name": "tokenId",
          "type": "uint256"
        }
      ],
      "name": "Approval",
      "type": "event"
    },
    {
      "anonymous": false,
      "inputs": [
        {
          "indexed": true,
          "internalType": "address",
          "name": "owner",
          "type": "address"
        },
        {
          "indexed": true,
          "internalType": "address",
          "name": "operator",
          "type": "address"
        },
        {
          "indexed": false,
          "internalType": "bool",
          "name": "approved",
          "type": "bool"
        }
      ],
      "name": "ApprovalForAll",
      "type": "event"
    },
    {
      "anonymous": false,
      "inputs": [
        {
          "indexed": true,
          "internalType": "address",
          "name": "previousOwner",
          "type": "address"
        },
        {
          "indexed": true,
          "internalType": "address",
          "name": "newOwner",
          "type": "address"
        }
      ],
      "name": "OwnershipTransferred",
      "type": "event"
    },
    {
      "anonymous": false,
      "inputs": [
        {
          "indexed": true,
          "internalType": "address",
          "name": "from",
          "type": "address"
        },
        {
          "indexed": true,
          "internalType": "address",
          "name": "to",
          "type": "address"
        },
        {
          "indexed": true,
          "internalType": "uint256",
          "name": "tokenId",
          "type": "uint256"
        }
      ],
      "name": "Transfer",
      "type": "event"
    },
    {
      "inputs": [
        {
          "internalType": "address",
          "name": "to",
          "type": "address"
        },
        {
          "internalType": "uint256",
          "name": "tokenId",
          "type": "uint256"
        }
      ],
      "name": "approve",
      "outputs": [],
      "stateMutability": "nonpayable",
      "type": "function"
    },
    {
      "inputs": [
        {
          "internalType": "uint256",
          "name": "",
          "type": "uint256"
        }
      ],
      "name": "assetData",
      "outputs": [
        {
          "internalType": "string",
          "name": "assetType",
          "type": "string"
        },
        {
          "internalType": "string",
          "name": "quality",
          "type": "string"
        },
        {
          "internalType": "string",
          "name": "location",
          "type": "string"
        }
      ],
      "stateMutability": "view",
      "type": "function"
    },
    {
      "inputs": [
        {
          "internalType": "address",
          "name": "owner",
          "type": "address"
        }
      ],
      "name": "balanceOf",
      "outputs": [
        {
          "internalType": "uint256",
          "name": "",
          "type": "uint256"
        }
      ],
      "stateMutability": "view",
      "type": "function"
    },
    {
      "inputs": [
        {
          "internalType": "uint256",
          "name": "tokenId",
          "type": "uint256"
        }
      ],
      "name": "getApproved",
      "outputs": [
        {
          "internalType": "address",
          "name": "",
          "type": "address"
        }
      ],
      "stateMutability": "view",
      "type": "function"
    },
    {
      "inputs": [
        {
          "internalType": "uint256",
          "name": "tokenId",
          "type": "uint256"
        }
      ],
      "name": "getAssetData",
      "outputs": [
        {
          "components": [
            {
              "internalType": "string",
              "name": "assetType",
              "type": "string"
            },
            {
              "internalType": "string",
              "name": "quality",
              "type": "string"
            },
            {
              "internalType": "string",
              "name": "location",
              "type": "string"
            }
          ],
          "internalType": "struct AssetToken.AssetData",
          "name": "",
          "type": "tuple"
        }
      ],
      "stateMutability": "view",
      "type": "function"
    },
    {
      "inputs": [
        {
          "internalType": "address",
          "name": "owner",
          "type": "address"
        },
        {
          "internalType": "address",
          "name": "operator",
          "type": "address"
        }
      ],
      "name": "isApprovedForAll",
      "outputs": [
        {
          "internalType": "bool",
          "name": "",
          "type": "bool"
        }
      ],
      "stateMutability": "view",
      "type": "function"
    },
    {
      "inputs": [],
      "name": "name",
      "outputs": [
        {
          "internalType": "string",
          "name": "",
          "type": "string"
        }
      ],
      "stateMutability": "view",
      "type": "function"
    },
    {
      "inputs": [],
      "name": "owner",
      "outputs": [
        {
          "internalType": "address",
          "name": "",
          "type": "address"
        }
      ],
      "stateMutability": "view",
      "type": "function"
    },
    {
      "inputs": [
        {
          "internalType": "uint256",
          "name": "tokenId",
          "type": "uint256"
        }
      ],
      "name": "ownerOf",
      "outputs": [
        {
          "internalType": "address",
          "name": "",
          "type": "address"
        }
      ],
      "stateMutability": "view",
      "type": "function"
    },
    {
      "inputs": [],
      "name": "renounceOwnership",
      "outputs": [],
      "stateMutability": "nonpayable",
      "type": "function"
    },
    {
      "inputs": [
        {
          "internalType": "address",
          "name": "to",
          "type": "address"
        },
        {
          "internalType": "string",
          "name": "assetType",
          "type": "string"
        },
        {
          "internalType": "string",
          "name": "quality",
          "type": "string"
        },
        {
          "internalType": "string",
          "name": "location",
          "type": "string"
        }
      ],
      "name": "safeMint",
      "outputs": [],
      "stateMutability": "nonpayable",
      "type": "function"
    },
    {
      "inputs": [
        {
          "internalType": "address",
          "name": "from",
          "type": "address"
        },
        {
          "internalType": "address",
          "name": "to",
          "type": "address"
        },
        {
          "internalType": "uint256",
          "name": "tokenId",
          "type": "uint256"
        }
      ],
      "name": "safeTransferFrom",
      "outputs": [],
      "stateMutability": "nonpayable",
      "type": "function"
    },
    {
      "inputs": [
        {
          "internalType": "address",
          "name": "from",
          "type": "address"
        },
        {
          "internalType": "address",
          "name": "to",
          "type": "address"
        },
        {
          "internalType": "uint256",
          "name": "tokenId",
          "type": "uint256"
        },
        {
          "internalType": "bytes",
          "name": "data",
          "type": "bytes"
        }
      ],
      "name": "safeTransferFrom",
      "outputs": [],
      "stateMutability": "nonpayable",
      "type": "function"
    },
    {
      "inputs": [
        {
          "internalType": "address",
          "name": "operator",
          "type": "address"
        },
        {
          "internalType": "bool",
          "name": "approved",
          "type": "bool"
        }
      ],
      "name": "setApprovalForAll",
      "outputs": [],
      "stateMutability": "nonpayable",
      "type": "function"
    },
    {
      "inputs": [
        {
          "internalType": "bytes4",
          "name": "interfaceId",
          "type": "bytes4"
        }
      ],
      "name": "supportsInterface",
      "outputs": [
        {
          "internalType": "bool",
          "name": "",
          "type": "bool"
        }
      ],
      "stateMutability": "view",
      "type": "function"
    },
    {
      "inputs": [],
      "name": "symbol",
      "outputs": [
        {
          "internalType": "string",
          "name": "",
          "type": "string"
        }
      ],
      "stateMutability": "view",
      "type": "function"
    },
    {
      "inputs": [
        {
          "internalType": "uint256",
          "name": "tokenId",
          "type": "uint256"
        }
      ],
      "name": "tokenURI",
      "outputs": [
        {
          "internalType": "string",
          "name": "",
          "type": "string"
        }
      ],
      "stateMutability": "view",
      "type": "function"
    },
    {
      "inputs": [
        {
          "internalType": "address",
          "name": "from",
          "type": "address"
        },
        {
          "internalType": "address",
          "name": "to",
          "type": "address"
        },
        {
          "internalType": "uint256",
          "name": "tokenId",
          "type": "uint256"
        }
      ],
      "name": "transferFrom",
      "outputs": [],
      "stateMutability": "nonpayable",
      "type": "function"
    },
    {
      "inputs": [
        {
          "internalType": "address",
          "name": "newOwner",
          "type": "address"
        }
      ],
      "name": "transferOwnership",
      "outputs": [],
      "stateMutability": "nonpayable",
      "type": "function"
    }
  ],
  "bytecode": "0x60806040523480156200001157600080fd5b50336040518060400160405280600d81526020017f496e746567726f204173736574000000000000000000000000000000000000008152506040518060400160405280600481526020017f494e544100000000000000000000000000000000000000000000000000000000815250816000908162000090919062000472565b508060019081620000a2919062000472565b505050600073ffffffffffffffffffffffffffffffffffffffff168173ffffffffffffffffffffffffffffffffffffffff16036200011a5760006040517f1e4fbdf70000000000000000000000000000000000000000000000000000000081526004016200011191906200059e565b60405180910390fd5b6200012b816200013260201b60201c565b50620005bb565b6000600660009054906101000a900473ffffffffffffffffffffffffffffffffffffffff16905081600660006101000a81548173ffffffffffffffffffffffffffffffffffffffff021916908373ffffffffffffffffffffffffffffffffffffffff1602179055508173ffffffffffffffffffffffffffffffffffffffff168173ffffffffffffffffffffffffffffffffffffffff167f8be0079c531659141344cd1fd0a4f28419497f9722a3daafe3b4186f6b6457e060405160405180910390a35050565b600081519050919050565b7f4e487b7100000000000000000000000000000000000000000000000000000000600052604160045260246000fd5b7f4e487b7100000000000000000000000000000000000000000000000000000000600052602260045260246000fd5b600060028204905060018216806200027a57607f821691505b60208210810362000290576200028f62000232565b5b50919050565b60008190508160005260206000209050919050565b60006020601f8301049050919050565b600082821b905092915050565b600060088302620002fa7fffffffffffffffffffffffffffffffffffffffffffffffffffffffffffffffff82620002bb565b620003068683620002bb565b95508019841693508086168417925050509392505050565b6000819050919050565b6000819050919050565b6000620003536200034d62000347846200031e565b62000328565b6200031e565b9050919050565b6000819050919050565b6200036f8362000332565b620003876200037e826200035a565b848454620002c8565b825550505050565b600090565b6200039e6200038f565b620003ab81848462000364565b505050565b5b81811015620003d357620003c760008262000394565b600181019050620003b1565b5050565b601f8211156200042257620003ec8162000296565b620003f784620002ab565b8101602085101562000407578190505b6200041f6200041685620002ab565b830182620003b0565b50505b505050565b600082821c905092915050565b6000620004476000198460080262000427565b1980831691505092915050565b600062000462838362000434565b9150826002028217905092915050565b6200047d82620001f8565b67ffffffffffffffff81111562000499576200049862000203565b5b620004a5825462000261565b620004b2828285620003d7565b600060209050601f831160018114620004ea5760008415620004d5578287015190505b620004e1858262000454565b86555062000551565b601f198416620004fa8662000296565b60005b828110156200052457848901518255600182019150602085019450602081019050620004fd565b8683101562000544578489015162000540601f89168262000434565b8355505b6001600288020188555050505b505050505050565b600073ffffffffffffffffffffffffffffffffffffffff82169050919050565b6000620005868262000559565b9050919050565b620005988162000579565b82525050565b6000602082019050620005b560008301846200058d565b92915050565b612d6d80620005cb6000396000f3fe608060405234801561001057600080fd5b50600436106101215760003560e01c8063715018a6116100ad578063ac823a7e11610071578063ac823a7e14610306578063b88d4fde14610338578063c87b56dd14610354578063e985e9c514610384578063f2fde38b146103b457610121565b8063715018a6146102745780637d1108f51461027e5780638da5cb5b146102ae57806395d89b41146102cc578063a22cb465146102ea57610121565b8063095ea7b3116100f4578063095ea7b3146101c057806323b872dd146101dc57806342842e0e146101f85780636352211e1461021457806370a082311461024457610121565b806301ffc9a71461012657806303a80dfb1461015657806306fdde0314610172578063081812fc14610190575b600080fd5b610140600480360381019061013b9190611f1e565b6103d0565b60405161014d9190611f66565b60405180910390f35b610170600480360381019061016b9190612125565b6104b2565b005b61017a61057c565b604051610187919061225f565b60405180910390f35b6101aa60048036038101906101a591906122b7565b61060e565b6040516101b791906122f3565b60405180910390f35b6101da60048036038101906101d5919061230e565b61062a565b005b6101f660048036038101906101f1919061234e565b610640565b005b610212600480360381019061020d919061234e565b610742565b005b61022e600480360381019061022991906122b7565b610762565b60405161023b91906122f3565b60405180910390f35b61025e600480360381019061025991906123a1565b610774565b60405161026b91906123dd565b60405180910390f35b61027c61082e565b005b610298600480360381019061029391906122b7565b610842565b6040516102a591906124a0565b60405180910390f35b6102b6610a9c565b6040516102c391906122f3565b60405180910390f35b6102d4610ac6565b6040516102e1919061225f565b60405180910390f35b61030460048036038101906102ff91906124ee565b610b58565b005b610320600480360381019061031b91906122b7565b610b6e565b60405161032f9392919061252e565b60405180910390f35b610352600480360381019061034d919061261b565b610d30565b005b61036e600480360381019061036991906122b7565b610d55565b60405161037b919061225f565b60405180910390f35b61039e6004803603810190610399919061269e565b610dbe565b6040516103ab9190611f66565b60405180910390f35b6103ce60048036038101906103c991906123a1565b610e52565b005b60007f80ac58cd000000000000000000000000000000000000000000000000000000007bffffffffffffffffffffffffffffffffffffffffffffffffffffffff1916827bffffffffffffffffffffffffffffffffffffffffffffffffffffffff1916148061049b57507f5b5e139f000000000000000000000000000000000000000000000000000000007bffffffffffffffffffffffffffffffffffffffffffffffffffffffff1916827bffffffffffffffffffffffffffffffffffffffffffffffffffffffff1916145b806104ab57506104aa82610ed8565b5b9050919050565b6104ba610f42565b6000600760008154809291906104cf9061270d565b9190505590506104df8582610fc9565b6040518060600160405280858152602001848152602001838152506008600083815260200190815260200160002060008201518160000190816105229190612961565b5060208201518160010190816105389190612961565b50604082015181600201908161054e9190612961565b50905050610575604051806060016040528060338152602001612d05603391398287610fe7565b5050505050565b60606000805461058b90612784565b80601f01602080910402602001604051908101604052809291908181526020018280546105b790612784565b80156106045780601f106105d957610100808354040283529160200191610604565b820191906000526020600020905b8154815290600101906020018083116105e757829003601f168201915b5050505050905090565b600061061982611086565b506106238261110e565b9050919050565b61063c828261063761114b565b611153565b5050565b600073ffffffffffffffffffffffffffffffffffffffff168273ffffffffffffffffffffffffffffffffffffffff16036106b25760006040517f64a0ae920000000000000000000000000000000000000000000000000000000081526004016106a991906122f3565b60405180910390fd5b60006106c683836106c161114b565b611165565b90508373ffffffffffffffffffffffffffffffffffffffff168173ffffffffffffffffffffffffffffffffffffffff161461073c578382826040517f64283d7b00000000000000000000000000000000000000000000000000000000815260040161073393929190612a33565b60405180910390fd5b50505050565b61075d83838360405180602001604052806000815250610d30565b505050565b600061076d82611086565b9050919050565b60008073ffffffffffffffffffffffffffffffffffffffff168273ffffffffffffffffffffffffffffffffffffffff16036107e75760006040517f89c62b640000000000000000000000000000000000000000000000000000000081526004016107de91906122f3565b60405180910390fd5b600360008373ffffffffffffffffffffffffffffffffffffffff1673ffffffffffffffffffffffffffffffffffffffff168152602001908152602001600020549050919050565b610836610f42565b610840600061137f565b565b61084a611e87565b600073ffffffffffffffffffffffffffffffffffffffff1661086b83610762565b73ffffffffffffffffffffffffffffffffffffffff16036108c1576040517f08c379a00000000000000000000000000000000000000000000000000000000081526004016108b890612adc565b60405180910390fd5b600860008381526020019081526020016000206040518060600160405290816000820180546108ef90612784565b80601f016020809104026020016040519081016040528092919081815260200182805461091b90612784565b80156109685780601f1061093d57610100808354040283529160200191610968565b820191906000526020600020905b81548152906001019060200180831161094b57829003601f168201915b5050505050815260200160018201805461098190612784565b80601f01602080910402602001604051908101604052809291908181526020018280546109ad90612784565b80156109fa5780601f106109cf576101008083540402835291602001916109fa565b820191906000526020600020905b8154815290600101906020018083116109dd57829003601f168201915b50505050508152602001600282018054610a1390612784565b80601f0160208091040260200160405190810160405280929190818152602001828054610a3f90612784565b8015610a8c5780601f10610a6157610100808354040283529160200191610a8c565b820191906000526020600020905b815481529060010190602001808311610a6f57829003601f168201915b5050505050815250509050919050565b6000600660009054906101000a900473ffffffffffffffffffffffffffffffffffffffff16905090565b606060018054610ad590612784565b80601f0160208091040260200160405190810160405280929190818152602001828054610b0190612784565b8015610b4e5780601f10610b2357610100808354040283529160200191610b4e565b820191906000526020600020905b815481529060010190602001808311610b3157829003601f168201915b5050505050905090565b610b6a610b6361114b565b8383611445565b5050565b6008602052806000526040600020600091509050806000018054610b9190612784565b80601f0160208091040260200160405190810160405280929190818152602001828054610bbd90612784565b8015610c0a5780601f10610bdf57610100808354040283529160200191610c0a565b820191906000526020600020905b815481529060010190602001808311610bed57829003601f168201915b505050505090806001018054610c1f90612784565b80601f0160208091040260200160405190810160405280929190818152602001828054610c4b90612784565b8015610c985780601f10610c6d57610100808354040283529160200191610c98565b820191906000526020600020905b815481529060010190602001808311610c7b57829003601f168201915b505050505090806002018054610cad90612784565b80601f0160208091040260200160405190810160405280929190818152602001828054610cd990612784565b8015610d265780601f10610cfb57610100808354040283529160200191610d26565b820191906000526020600020905b815481529060010190602001808311610d0957829003601f168201915b5050505050905083565b610d3b848484610640565b610d4f610d4661114b565b858585856115b4565b50505050565b6060610d6082611086565b506000610d6b611765565b90506000815111610d8b5760405180602001604052806000815250610db6565b80610d958461177c565b604051602001610da6929190612b38565b6040516020818303038152906040525b915050919050565b6000600560008473ffffffffffffffffffffffffffffffffffffffff1673ffffffffffffffffffffffffffffffffffffffff16815260200190815260200160002060008373ffffffffffffffffffffffffffffffffffffffff1673ffffffffffffffffffffffffffffffffffffffff16815260200190815260200160002060009054906101000a900460ff16905092915050565b610e5a610f42565b600073ffffffffffffffffffffffffffffffffffffffff168173ffffffffffffffffffffffffffffffffffffffff1603610ecc5760006040517f1e4fbdf7000000000000000000000000000000000000000000000000000000008152600401610ec391906122f3565b60405180910390fd5b610ed58161137f565b50565b60007f01ffc9a7000000000000000000000000000000000000000000000000000000007bffffffffffffffffffffffffffffffffffffffffffffffffffffffff1916827bffffffffffffffffffffffffffffffffffffffffffffffffffffffff1916149050919050565b610f4a61114b565b73ffffffffffffffffffffffffffffffffffffffff16610f68610a9c565b73ffffffffffffffffffffffffffffffffffffffff1614610fc757610f8b61114b565b6040517f118cdaa7000000000000000000000000000000000000000000000000000000008152600401610fbe91906122f3565b60405180910390fd5b565b610fe382826040518060200160405280600081525061184a565b5050565b611081838383604051602401610fff93929190612b5c565b6040516020818303038152906040527f1c7ec448000000000000000000000000000000000000000000000000000000007bffffffffffffffffffffffffffffffffffffffffffffffffffffffff19166020820180517bffffffffffffffffffffffffffffffffffffffffffffffffffffffff838183161783525050505061186e565b505050565b60008061109283611888565b9050600073ffffffffffffffffffffffffffffffffffffffff168173ffffffffffffffffffffffffffffffffffffffff160361110557826040517f7e2732890000000000000000000000000000000000000000000000000000000081526004016110fc91906123dd565b60405180910390fd5b80915050919050565b60006004600083815260200190815260200160002060009054906101000a900473ffffffffffffffffffffffffffffffffffffffff169050919050565b600033905090565b61116083838360016118c5565b505050565b60008061117184611888565b9050600073ffffffffffffffffffffffffffffffffffffffff168373ffffffffffffffffffffffffffffffffffffffff16146111b3576111b2818486611a8a565b5b600073ffffffffffffffffffffffffffffffffffffffff168173ffffffffffffffffffffffffffffffffffffffff1614611244576111f56000856000806118c5565b6001600360008373ffffffffffffffffffffffffffffffffffffffff1673ffffffffffffffffffffffffffffffffffffffff168152602001908152602001600020600082825403925050819055505b600073ffffffffffffffffffffffffffffffffffffffff168573ffffffffffffffffffffffffffffffffffffffff16146112c7576001600360008773ffffffffffffffffffffffffffffffffffffffff1673ffffffffffffffffffffffffffffffffffffffff168152602001908152602001600020600082825401925050819055505b846002600086815260200190815260200160002060006101000a81548173ffffffffffffffffffffffffffffffffffffffff021916908373ffffffffffffffffffffffffffffffffffffffff160217905550838573ffffffffffffffffffffffffffffffffffffffff168273ffffffffffffffffffffffffffffffffffffffff167fddf252ad1be2c89b69c2b068fc378daa952ba7f163c4a11628f55a4df523b3ef60405160405180910390a4809150509392505050565b6000600660009054906101000a900473ffffffffffffffffffffffffffffffffffffffff16905081600660006101000a81548173ffffffffffffffffffffffffffffffffffffffff021916908373ffffffffffffffffffffffffffffffffffffffff1602179055508173ffffffffffffffffffffffffffffffffffffffff168173ffffffffffffffffffffffffffffffffffffffff167f8be0079c531659141344cd1fd0a4f28419497f9722a3daafe3b4186f6b6457e060405160405180910390a35050565b600073ffffffffffffffffffffffffffffffffffffffff168273ffffffffffffffffffffffffffffffffffffffff16036114b657816040517f5b08ba180000000000000000000000000000000000000000000000000000000081526004016114ad91906122f3565b60405180910390fd5b80600560008573ffffffffffffffffffffffffffffffffffffffff1673ffffffffffffffffffffffffffffffffffffffff16815260200190815260200160002060008473ffffffffffffffffffffffffffffffffffffffff1673ffffffffffffffffffffffffffffffffffffffff16815260200190815260200160002060006101000a81548160ff0219169083151502179055508173ffffffffffffffffffffffffffffffffffffffff168373ffffffffffffffffffffffffffffffffffffffff167f17307eab39ab6107e8899845ad3d59bd9653f200f220920489ca2b5937696c31836040516115a79190611f66565b60405180910390a3505050565b60008373ffffffffffffffffffffffffffffffffffffffff163b111561175e578273ffffffffffffffffffffffffffffffffffffffff1663150b7a02868685856040518563ffffffff1660e01b81526004016116139493929190612bef565b6020604051808303816000875af192505050801561164f57506040513d601f19601f8201168201806040525081019061164c9190612c50565b60015b6116d3573d806000811461167f576040519150601f19603f3d011682016040523d82523d6000602084013e611684565b606091505b5060008151036116cb57836040517f64a0ae920000000000000000000000000000000000000000000000000000000081526004016116c291906122f3565b60405180910390fd5b805160208201fd5b63150b7a0260e01b7bffffffffffffffffffffffffffffffffffffffffffffffffffffffff1916817bffffffffffffffffffffffffffffffffffffffffffffffffffffffff19161461175c57836040517f64a0ae9200000000000000000000000000000000000000000000000000000000815260040161175391906122f3565b60405180910390fd5b505b5050505050565b606060405180602001604052806000815250905090565b60606000600161178b84611b4e565b01905060008167ffffffffffffffff8111156117aa576117a9611ffa565b5b6040519080825280601f01601f1916602001820160405280156117dc5781602001600182028036833780820191505090505b509050600082602083010190505b60011561183f578080600190039150507f3031323334353637383961626364656600000000000000000000000000000000600a86061a8153600a858161183357611832612c7d565b5b049450600085036117ea575b819350505050919050565b6118548383611ca1565b61186961185f61114b565b60008585856115b4565b505050565b6118858161187d611d9a611dbb565b63ffffffff16565b50565b60006002600083815260200190815260200160002060009054906101000a900473ffffffffffffffffffffffffffffffffffffffff169050919050565b80806118fe5750600073ffffffffffffffffffffffffffffffffffffffff168273ffffffffffffffffffffffffffffffffffffffff1614155b15611a3257600061190e84611086565b9050600073ffffffffffffffffffffffffffffffffffffffff168373ffffffffffffffffffffffffffffffffffffffff161415801561197957508273ffffffffffffffffffffffffffffffffffffffff168173ffffffffffffffffffffffffffffffffffffffff1614155b801561198c575061198a8184610dbe565b155b156119ce57826040517fa9fbf51f0000000000000000000000000000000000000000000000000000000081526004016119c591906122f3565b60405180910390fd5b8115611a3057838573ffffffffffffffffffffffffffffffffffffffff168273ffffffffffffffffffffffffffffffffffffffff167f8c5be1e5ebec7d5bd14f71427d1e84f3dd0314c0f7b2291e5b200ac8c7c3b92560405160405180910390a45b505b836004600085815260200190815260200160002060006101000a81548173ffffffffffffffffffffffffffffffffffffffff021916908373ffffffffffffffffffffffffffffffffffffffff16021790555050505050565b611a95838383611dc6565b611b4957600073ffffffffffffffffffffffffffffffffffffffff168373ffffffffffffffffffffffffffffffffffffffff1603611b0a57806040517f7e273289000000000000000000000000000000000000000000000000000000008152600401611b0191906123dd565b60405180910390fd5b81816040517f177e802f000000000000000000000000000000000000000000000000000000008152600401611b40929190612cac565b60405180910390fd5b505050565b600080600090507a184f03e93ff9f4daa797ed6e38ed64bf6a1f0100000000000000008310611bac577a184f03e93ff9f4daa797ed6e38ed64bf6a1f0100000000000000008381611ba257611ba1612c7d565b5b0492506040810190505b6d04ee2d6d415b85acef81000000008310611be9576d04ee2d6d415b85acef81000000008381611bdf57611bde612c7d565b5b0492506020810190505b662386f26fc100008310611c1857662386f26fc100008381611c0e57611c0d612c7d565b5b0492506010810190505b6305f5e1008310611c41576305f5e1008381611c3757611c36612c7d565b5b0492506008810190505b6127108310611c66576127108381611c5c57611c5b612c7d565b5b0492506004810190505b60648310611c895760648381611c7f57611c7e612c7d565b5b0492506002810190505b600a8310611c98576001810190505b80915050919050565b600073ffffffffffffffffffffffffffffffffffffffff168273ffffffffffffffffffffffffffffffffffffffff1603611d135760006040517f64a0ae92000000000000000000000000000000000000000000000000000000008152600401611d0a91906122f3565b60405180910390fd5b6000611d2183836000611165565b9050600073ffffffffffffffffffffffffffffffffffffffff168173ffffffffffffffffffffffffffffffffffffffff1614611d955760006040517f73c6ac6e000000000000000000000000000000000000000000000000000000008152600401611d8c91906122f3565b60405180910390fd5b505050565b60006a636f6e736f6c652e6c6f679050600080835160208501845afa505050565b611ea8819050919050565b60008073ffffffffffffffffffffffffffffffffffffffff168373ffffffffffffffffffffffffffffffffffffffff1614158015611e7e57508273ffffffffffffffffffffffffffffffffffffffff168473ffffffffffffffffffffffffffffffffffffffff161480611e3f5750611e3e8484610dbe565b5b80611e7d57508273ffffffffffffffffffffffffffffffffffffffff16611e658361110e565b73ffffffffffffffffffffffffffffffffffffffff16145b5b90509392505050565b60405180606001604052806060815260200160608152602001606081525090565b611eb0612cd5565b565b6000604051905090565b600080fd5b600080fd5b60007fffffffff0000000000000000000000000000000000000000000000000000000082169050919050565b611efb81611ec6565b8114611f0657600080fd5b50565b600081359050611f1881611ef2565b92915050565b600060208284031215611f3457611f33611ebc565b5b6000611f4284828501611f09565b91505092915050565b60008115159050919050565b611f6081611f4b565b82525050565b6000602082019050611f7b6000830184611f57565b92915050565b600073ffffffffffffffffffffffffffffffffffffffff82169050919050565b6000611fac82611f81565b9050919050565b611fbc81611fa1565b8114611fc757600080fd5b50565b600081359050611fd981611fb3565b92915050565b600080fd5b600080fd5b6000601f19601f8301169050919050565b7f4e487b7100000000000000000000000000000000000000000000000000000000600052604160045260246000fd5b61203282611fe9565b810181811067ffffffffffffffff8211171561205157612050611ffa565b5b80604052505050565b6000612064611eb2565b90506120708282612029565b919050565b600067ffffffffffffffff8211156120905761208f611ffa565b5b61209982611fe9565b9050602081019050919050565b82818337600083830152505050565b60006120c86120c384612075565b61205a565b9050828152602081018484840111156120e4576120e3611fe4565b5b6120ef8482856120a6565b509392505050565b600082601f83011261210c5761210b611fdf565b5b813561211c8482602086016120b5565b91505092915050565b6000806000806080858703121561213f5761213e611ebc565b5b600061214d87828801611fca565b945050602085013567ffffffffffffffff81111561216e5761216d611ec1565b5b61217a878288016120f7565b935050604085013567ffffffffffffffff81111561219b5761219a611ec1565b5b6121a7878288016120f7565b925050606085013567ffffffffffffffff8111156121c8576121c7611ec1565b5b6121d4878288016120f7565b91505092959194509250565b600081519050919050565b600082825260208201905092915050565b60005b8381101561221a5780820151818401526020810190506121ff565b60008484015250505050565b6000612231826121e0565b61223b81856121eb565b935061224b8185602086016121fc565b61225481611fe9565b840191505092915050565b600060208201905081810360008301526122798184612226565b905092915050565b6000819050919050565b61229481612281565b811461229f57600080fd5b50565b6000813590506122b18161228b565b92915050565b6000602082840312156122cd576122cc611ebc565b5b60006122db848285016122a2565b91505092915050565b6122ed81611fa1565b82525050565b600060208201905061230860008301846122e4565b92915050565b6000806040838503121561232557612324611ebc565b5b600061233385828601611fca565b9250506020612344858286016122a2565b9150509250929050565b60008060006060848603121561236757612366611ebc565b5b600061237586828701611fca565b935050602061238686828701611fca565b9250506040612397868287016122a2565b9150509250925092565b6000602082840312156123b7576123b6611ebc565b5b60006123c584828501611fca565b91505092915050565b6123d781612281565b82525050565b60006020820190506123f260008301846123ce565b92915050565b600082825260208201905092915050565b6000612414826121e0565b61241e81856123f8565b935061242e8185602086016121fc565b61243781611fe9565b840191505092915050565b6000606083016000830151848203600086015261245f8282612409565b915050602083015184820360208601526124798282612409565b915050604083015184820360408601526124938282612409565b9150508091505092915050565b600060208201905081810360008301526124ba8184612442565b905092915050565b6124cb81611f4b565b81146124d657600080fd5b50565b6000813590506124e8816124c2565b92915050565b6000806040838503121561250557612504611ebc565b5b600061251385828601611fca565b9250506020612524858286016124d9565b9150509250929050565b600060608201905081810360008301526125488186612226565b9050818103602083015261255c8185612226565b905081810360408301526125708184612226565b9050949350505050565b600067ffffffffffffffff82111561259557612594611ffa565b5b61259e82611fe9565b9050602081019050919050565b60006125be6125b98461257a565b61205a565b9050828152602081018484840111156125da576125d9611fe4565b5b6125e58482856120a6565b509392505050565b600082601f83011261260257612601611fdf565b5b81356126128482602086016125ab565b91505092915050565b6000806000806080858703121561263557612634611ebc565b5b600061264387828801611fca565b945050602061265487828801611fca565b9350506040612665878288016122a2565b925050606085013567ffffffffffffffff81111561268657612685611ec1565b5b612692878288016125ed565b91505092959194509250565b600080604083850312156126b5576126b4611ebc565b5b60006126c385828601611fca565b92505060206126d485828601611fca565b9150509250929050565b7f4e487b7100000000000000000000000000000000000000000000000000000000600052601160045260246000fd5b600061271882612281565b91507fffffffffffffffffffffffffffffffffffffffffffffffffffffffffffffffff820361274a576127496126de565b5b600182019050919050565b7f4e487b7100000000000000000000000000000000000000000000000000000000600052602260045260246000fd5b6000600282049050600182168061279c57607f821691505b6020821081036127af576127ae612755565b5b50919050565b60008190508160005260206000209050919050565b60006020601f8301049050919050565b600082821b905092915050565b6000600883026128177fffffffffffffffffffffffffffffffffffffffffffffffffffffffffffffffff826127da565b61282186836127da565b95508019841693508086168417925050509392505050565b6000819050919050565b600061285e61285961285484612281565b612839565b612281565b9050919050565b6000819050919050565b61287883612843565b61288c61288482612865565b8484546127e7565b825550505050565b600090565b6128a1612894565b6128ac81848461286f565b505050565b5b818110156128d0576128c5600082612899565b6001810190506128b2565b5050565b601f821115612915576128e6816127b5565b6128ef846127ca565b810160208510156128fe578190505b61291261290a856127ca565b8301826128b1565b50505b505050565b600082821c905092915050565b60006129386000198460080261291a565b1980831691505092915050565b60006129518383612927565b9150826002028217905092915050565b61296a826121e0565b67ffffffffffffffff81111561298357612982611ffa565b5b61298d8254612784565b6129988282856128d4565b600060209050601f8311600181146129cb57600084156129b9578287015190505b6129c38582612945565b865550612a2b565b601f1984166129d9866127b5565b60005b82811015612a01578489015182556001820191506020850194506020810190506129dc565b86831015612a1e5784890151612a1a601f891682612927565b8355505b6001600288020188555050505b505050505050565b6000606082019050612a4860008301866122e4565b612a5560208301856123ce565b612a6260408301846122e4565b949350505050565b7f4173736574546f6b656e3a20517565727920666f72206e6f6e6578697374656e60008201527f7420746f6b656e00000000000000000000000000000000000000000000000000602082015250565b6000612ac66027836121eb565b9150612ad182612a6a565b604082019050919050565b60006020820190508181036000830152612af581612ab9565b9050919050565b600081905092915050565b6000612b12826121e0565b612b1c8185612afc565b9350612b2c8185602086016121fc565b80840191505092915050565b6000612b448285612b07565b9150612b508284612b07565b91508190509392505050565b60006060820190508181036000830152612b768186612226565b9050612b8560208301856123ce565b612b9260408301846122e4565b949350505050565b600081519050919050565b600082825260208201905092915050565b6000612bc182612b9a565b612bcb8185612ba5565b9350612bdb8185602086016121fc565b612be481611fe9565b840191505092915050565b6000608082019050612c0460008301876122e4565b612c1160208301866122e4565b612c1e60408301856123ce565b8181036060830152612c308184612bb6565b905095945050505050565b600081519050612c4a81611ef2565b92915050565b600060208284031215612c6657612c65611ebc565b5b6000612c7484828501612c3b565b91505092915050565b7f4e487b7100000000000000000000000000000000000000000000000000000000600052601260045260246000fd5b6000604082019050612cc160008301856122e4565b612cce60208301846123ce565b9392505050565b7f4e487b7100000000000000000000000000000000000000000000000000000000600052605160045260246000fdfe4d696e746564206e6577204173736574204e4654207769746820546f6b656e20494420257320746f2061646472657373202573a26469706673582212204616d004287fd687a823a898be36aa05c9eaa84e706531c17edcdfe7c55eaaaa64736f6c63430008180033",
  "linkReferences": {},
  "deployedLinkReferences": {}
}